{
	"contracts/Primitives.sol": {
		"Primitives": {
			"abi": [
				{
					"inputs": [],
					"name": "boo",
					"outputs": [
						{
							"internalType": "bool",
							"name": "",
							"type": "bool"
						}
					],
					"stateMutability": "view",
					"type": "function"
				},
				{
					"inputs": [],
					"name": "defaultAddr",
					"outputs": [
						{
							"internalType": "address",
							"name": "",
							"type": "address"
						}
					],
					"stateMutability": "view",
					"type": "function"
				},
				{
					"inputs": [],
					"name": "defaultBoo",
					"outputs": [
						{
							"internalType": "bool",
							"name": "",
							"type": "bool"
						}
					],
					"stateMutability": "view",
					"type": "function"
				},
				{
					"inputs": [],
					"name": "defaultInt",
					"outputs": [
						{
							"internalType": "int256",
							"name": "",
							"type": "int256"
						}
					],
					"stateMutability": "view",
					"type": "function"
				},
				{
					"inputs": [],
					"name": "defaultUint",
					"outputs": [
						{
							"internalType": "uint256",
							"name": "",
							"type": "uint256"
						}
					],
					"stateMutability": "view",
					"type": "function"
				},
				{
					"inputs": [],
					"name": "i",
					"outputs": [
						{
							"internalType": "int256",
							"name": "",
							"type": "int256"
						}
					],
					"stateMutability": "view",
					"type": "function"
				},
				{
					"inputs": [],
					"name": "i256",
					"outputs": [
						{
							"internalType": "int256",
							"name": "",
							"type": "int256"
						}
					],
					"stateMutability": "view",
					"type": "function"
				},
				{
					"inputs": [],
					"name": "i8",
					"outputs": [
						{
							"internalType": "int8",
							"name": "",
							"type": "int8"
						}
					],
					"stateMutability": "view",
					"type": "function"
				},
				{
					"inputs": [],
					"name": "maxInt",
					"outputs": [
						{
							"internalType": "int256",
							"name": "",
							"type": "int256"
						}
					],
					"stateMutability": "view",
					"type": "function"
				},
				{
					"inputs": [],
					"name": "minInt",
					"outputs": [
						{
							"internalType": "int256",
							"name": "",
							"type": "int256"
						}
					],
					"stateMutability": "view",
					"type": "function"
				},
				{
					"inputs": [],
					"name": "u",
					"outputs": [
						{
							"internalType": "uint256",
							"name": "",
							"type": "uint256"
						}
					],
					"stateMutability": "view",
					"type": "function"
				},
				{
					"inputs": [],
					"name": "u256",
					"outputs": [
						{
							"internalType": "uint256",
							"name": "",
							"type": "uint256"
						}
					],
					"stateMutability": "view",
					"type": "function"
				},
				{
					"inputs": [],
					"name": "u8",
					"outputs": [
						{
							"internalType": "uint8",
							"name": "",
							"type": "uint8"
						}
					],
					"stateMutability": "view",
					"type": "function"
				}
			],
			"devdoc": {
				"kind": "dev",
				"methods": {},
				"version": 1
			},
			"evm": {
				"assembly": "    /* \"contracts/Primitives.sol\":58:1656  contract Primitives {... */\n  mstore(0x40, 0x80)\n    /* \"contracts/Primitives.sol\":102:106  true */\n  0x01\n    /* \"contracts/Primitives.sol\":84:106  bool public boo = true */\n  0x00\n  dup1\n  0x0100\n  exp\n  dup2\n  sload\n  dup2\n  0xff\n  mul\n  not\n  and\n  swap1\n  dup4\n  iszero\n  iszero\n  mul\n  or\n  swap1\n  sstore\n  pop\n    /* \"contracts/Primitives.sol\":402:403  1 */\n  0x01\n    /* \"contracts/Primitives.sol\":384:403  uint8 public u8 = 1 */\n  0x00\n  exp(0x0100, 0x01)\n  dup2\n  sload\n  dup2\n  0xff\n  mul\n  not\n  and\n  swap1\n  dup4\n  0xff\n  and\n  mul\n  or\n  swap1\n  sstore\n  pop\n    /* \"contracts/Primitives.sol\":431:434  456 */\n  0x01c8\n    /* \"contracts/Primitives.sol\":409:434  uint256 public u256 = 456 */\n  0x01\n  sstore\n    /* \"contracts/Primitives.sol\":456:459  123 */\n  0x7b\n    /* \"contracts/Primitives.sol\":440:459  uint public u = 123 */\n  0x02\n  sstore\n    /* \"contracts/Primitives.sol\":769:771  -1 */\n  0xffffffffffffffffffffffffffffffffffffffffffffffffffffffffffffffff\n    /* \"contracts/Primitives.sol\":752:771  int8 public i8 = -1 */\n  0x03\n  exp(0x0100, 0x00)\n  dup2\n  sload\n  dup2\n  0xff\n  mul\n  not\n  and\n  swap1\n  dup4\n  0x00\n  signextend\n  0xff\n  and\n  mul\n  or\n  swap1\n  sstore\n  pop\n    /* \"contracts/Primitives.sol\":798:801  456 */\n  0x01c8\n    /* \"contracts/Primitives.sol\":777:801  int256 public i256 = 456 */\n  0x04\n  sstore\n    /* \"contracts/Primitives.sol\":822:826  -123 */\n  0xffffffffffffffffffffffffffffffffffffffffffffffffffffffffffffff85\n    /* \"contracts/Primitives.sol\":807:826  int public i = -123 */\n  0x05\n  sstore\n    /* \"contracts/Primitives.sol\":918:934  type(int256).min */\n  0x8000000000000000000000000000000000000000000000000000000000000000\n    /* \"contracts/Primitives.sol\":895:934  int256 public minInt = type(int256).min */\n  0x06\n  sstore\n    /* \"contracts/Primitives.sol\":963:979  type(int256).max */\n  0x7fffffffffffffffffffffffffffffffffffffffffffffffffffffffffffffff\n    /* \"contracts/Primitives.sol\":940:979  int256 public maxInt = type(int256).max */\n  0x07\n  sstore\n    /* \"contracts/Primitives.sol\":1333:1337  0xb5 */\n  0xb5\n    /* \"contracts/Primitives.sol\":1322:1337  bytes1 a = 0xb5 */\n  0xf8\n  shl\n  0x08\n  exp(0x0100, 0x00)\n  dup2\n  sload\n  dup2\n  0xff\n  mul\n  not\n  and\n  swap1\n  dup4\n  0xf8\n  shr\n  mul\n  or\n  swap1\n  sstore\n  pop\n    /* \"contracts/Primitives.sol\":1371:1375  0x56 */\n  0x56\n    /* \"contracts/Primitives.sol\":1360:1375  bytes1 b = 0x56 */\n  0xf8\n  shl\n  0x08\n  exp(0x0100, 0x01)\n  dup2\n  sload\n  dup2\n  0xff\n  mul\n  not\n  and\n  swap1\n  dup4\n  0xf8\n  shr\n  mul\n  or\n  swap1\n  sstore\n  pop\n    /* \"contracts/Primitives.sol\":58:1656  contract Primitives {... */\n  callvalue\n  dup1\n  iszero\n  tag_1\n  jumpi\n  0x00\n  dup1\n  revert\ntag_1:\n  pop\n  dataSize(sub_0)\n  dup1\n  dataOffset(sub_0)\n  0x00\n  codecopy\n  0x00\n  return\nstop\n\nsub_0: assembly {\n        /* \"contracts/Primitives.sol\":58:1656  contract Primitives {... */\n      mstore(0x40, 0x80)\n      callvalue\n      dup1\n      iszero\n      tag_1\n      jumpi\n      0x00\n      dup1\n      revert\n    tag_1:\n      pop\n      jumpi(tag_2, lt(calldatasize, 0x04))\n      shr(0xe0, calldataload(0x00))\n      dup1\n      0x7a4c2571\n      gt\n      tag_16\n      jumpi\n      dup1\n      0xab3a58a3\n      gt\n      tag_17\n      jumpi\n      dup1\n      0xab3a58a3\n      eq\n      tag_12\n      jumpi\n      dup1\n      0xc6a898c5\n      eq\n      tag_13\n      jumpi\n      dup1\n      0xe5aa3d58\n      eq\n      tag_14\n      jumpi\n      dup1\n      0xf2427d37\n      eq\n      tag_15\n      jumpi\n      jump(tag_2)\n    tag_17:\n      dup1\n      0x7a4c2571\n      eq\n      tag_9\n      jumpi\n      dup1\n      0x7e4e14cc\n      eq\n      tag_10\n      jumpi\n      dup1\n      0x921cda74\n      eq\n      tag_11\n      jumpi\n      jump(tag_2)\n    tag_16:\n      dup1\n      0x074eef3f\n      eq\n      tag_3\n      jumpi\n      dup1\n      0x1570c2cb\n      eq\n      tag_4\n      jumpi\n      dup1\n      0x459b1acf\n      eq\n      tag_5\n      jumpi\n      dup1\n      0x4b3df200\n      eq\n      tag_6\n      jumpi\n      dup1\n      0x4c27fd62\n      eq\n      tag_7\n      jumpi\n      dup1\n      0x5abe622b\n      eq\n      tag_8\n      jumpi\n    tag_2:\n      0x00\n      dup1\n      revert\n        /* \"contracts/Primitives.sol\":1470:1492  bool public defaultBoo */\n    tag_3:\n      tag_18\n      tag_19\n      jump\t// in\n    tag_18:\n      mload(0x40)\n      tag_20\n      swap2\n      swap1\n      tag_21\n      jump\t// in\n    tag_20:\n      mload(0x40)\n      dup1\n      swap2\n      sub\n      swap1\n      return\n        /* \"contracts/Primitives.sol\":1507:1533  uint256 public defaultUint */\n    tag_4:\n      tag_22\n      tag_23\n      jump\t// in\n    tag_22:\n      mload(0x40)\n      tag_24\n      swap2\n      swap1\n      tag_25\n      jump\t// in\n    tag_24:\n      mload(0x40)\n      dup1\n      swap2\n      sub\n      swap1\n      return\n        /* \"contracts/Primitives.sol\":409:434  uint256 public u256 = 456 */\n    tag_5:\n      tag_26\n      tag_27\n      jump\t// in\n    tag_26:\n      mload(0x40)\n      tag_28\n      swap2\n      swap1\n      tag_25\n      jump\t// in\n    tag_28:\n      mload(0x40)\n      dup1\n      swap2\n      sub\n      swap1\n      return\n        /* \"contracts/Primitives.sol\":84:106  bool public boo = true */\n    tag_6:\n      tag_29\n      tag_30\n      jump\t// in\n    tag_29:\n      mload(0x40)\n      tag_31\n      swap2\n      swap1\n      tag_21\n      jump\t// in\n    tag_31:\n      mload(0x40)\n      dup1\n      swap2\n      sub\n      swap1\n      return\n        /* \"contracts/Primitives.sol\":777:801  int256 public i256 = 456 */\n    tag_7:\n      tag_32\n      tag_33\n      jump\t// in\n    tag_32:\n      mload(0x40)\n      tag_34\n      swap2\n      swap1\n      tag_35\n      jump\t// in\n    tag_34:\n      mload(0x40)\n      dup1\n      swap2\n      sub\n      swap1\n      return\n        /* \"contracts/Primitives.sol\":1544:1568  int256 public defaultInt */\n    tag_8:\n      tag_36\n      tag_37\n      jump\t// in\n    tag_36:\n      mload(0x40)\n      tag_38\n      swap2\n      swap1\n      tag_35\n      jump\t// in\n    tag_38:\n      mload(0x40)\n      dup1\n      swap2\n      sub\n      swap1\n      return\n        /* \"contracts/Primitives.sol\":940:979  int256 public maxInt = type(int256).max */\n    tag_9:\n      tag_39\n      tag_40\n      jump\t// in\n    tag_39:\n      mload(0x40)\n      tag_41\n      swap2\n      swap1\n      tag_35\n      jump\t// in\n    tag_41:\n      mload(0x40)\n      dup1\n      swap2\n      sub\n      swap1\n      return\n        /* \"contracts/Primitives.sol\":895:934  int256 public minInt = type(int256).min */\n    tag_10:\n      tag_42\n      tag_43\n      jump\t// in\n    tag_42:\n      mload(0x40)\n      tag_44\n      swap2\n      swap1\n      tag_35\n      jump\t// in\n    tag_44:\n      mload(0x40)\n      dup1\n      swap2\n      sub\n      swap1\n      return\n        /* \"contracts/Primitives.sol\":752:771  int8 public i8 = -1 */\n    tag_11:\n      tag_45\n      tag_46\n      jump\t// in\n    tag_45:\n      mload(0x40)\n      tag_47\n      swap2\n      swap1\n      tag_48\n      jump\t// in\n    tag_47:\n      mload(0x40)\n      dup1\n      swap2\n      sub\n      swap1\n      return\n        /* \"contracts/Primitives.sol\":384:403  uint8 public u8 = 1 */\n    tag_12:\n      tag_49\n      tag_50\n      jump\t// in\n    tag_49:\n      mload(0x40)\n      tag_51\n      swap2\n      swap1\n      tag_52\n      jump\t// in\n    tag_51:\n      mload(0x40)\n      dup1\n      swap2\n      sub\n      swap1\n      return\n        /* \"contracts/Primitives.sol\":440:459  uint public u = 123 */\n    tag_13:\n      tag_53\n      tag_54\n      jump\t// in\n    tag_53:\n      mload(0x40)\n      tag_55\n      swap2\n      swap1\n      tag_25\n      jump\t// in\n    tag_55:\n      mload(0x40)\n      dup1\n      swap2\n      sub\n      swap1\n      return\n        /* \"contracts/Primitives.sol\":807:826  int public i = -123 */\n    tag_14:\n      tag_56\n      tag_57\n      jump\t// in\n    tag_56:\n      mload(0x40)\n      tag_58\n      swap2\n      swap1\n      tag_35\n      jump\t// in\n    tag_58:\n      mload(0x40)\n      dup1\n      swap2\n      sub\n      swap1\n      return\n        /* \"contracts/Primitives.sol\":1581:1607  address public defaultAddr */\n    tag_15:\n      tag_59\n      tag_60\n      jump\t// in\n    tag_59:\n      mload(0x40)\n      tag_61\n      swap2\n      swap1\n      tag_62\n      jump\t// in\n    tag_61:\n      mload(0x40)\n      dup1\n      swap2\n      sub\n      swap1\n      return\n        /* \"contracts/Primitives.sol\":1470:1492  bool public defaultBoo */\n    tag_19:\n      0x08\n      0x02\n      swap1\n      sload\n      swap1\n      0x0100\n      exp\n      swap1\n      div\n      0xff\n      and\n      dup2\n      jump\t// out\n        /* \"contracts/Primitives.sol\":1507:1533  uint256 public defaultUint */\n    tag_23:\n      sload(0x09)\n      dup2\n      jump\t// out\n        /* \"contracts/Primitives.sol\":409:434  uint256 public u256 = 456 */\n    tag_27:\n      sload(0x01)\n      dup2\n      jump\t// out\n        /* \"contracts/Primitives.sol\":84:106  bool public boo = true */\n    tag_30:\n      0x00\n      dup1\n      sload\n      swap1\n      0x0100\n      exp\n      swap1\n      div\n      0xff\n      and\n      dup2\n      jump\t// out\n        /* \"contracts/Primitives.sol\":777:801  int256 public i256 = 456 */\n    tag_33:\n      sload(0x04)\n      dup2\n      jump\t// out\n        /* \"contracts/Primitives.sol\":1544:1568  int256 public defaultInt */\n    tag_37:\n      sload(0x0a)\n      dup2\n      jump\t// out\n        /* \"contracts/Primitives.sol\":940:979  int256 public maxInt = type(int256).max */\n    tag_40:\n      sload(0x07)\n      dup2\n      jump\t// out\n        /* \"contracts/Primitives.sol\":895:934  int256 public minInt = type(int256).min */\n    tag_43:\n      sload(0x06)\n      dup2\n      jump\t// out\n        /* \"contracts/Primitives.sol\":752:771  int8 public i8 = -1 */\n    tag_46:\n      0x03\n      0x00\n      swap1\n      sload\n      swap1\n      0x0100\n      exp\n      swap1\n      div\n      0x00\n      signextend\n      dup2\n      jump\t// out\n        /* \"contracts/Primitives.sol\":384:403  uint8 public u8 = 1 */\n    tag_50:\n      0x00\n      0x01\n      swap1\n      sload\n      swap1\n      0x0100\n      exp\n      swap1\n      div\n      0xff\n      and\n      dup2\n      jump\t// out\n        /* \"contracts/Primitives.sol\":440:459  uint public u = 123 */\n    tag_54:\n      sload(0x02)\n      dup2\n      jump\t// out\n        /* \"contracts/Primitives.sol\":807:826  int public i = -123 */\n    tag_57:\n      sload(0x05)\n      dup2\n      jump\t// out\n        /* \"contracts/Primitives.sol\":1581:1607  address public defaultAddr */\n    tag_60:\n      0x0b\n      0x00\n      swap1\n      sload\n      swap1\n      0x0100\n      exp\n      swap1\n      div\n      0xffffffffffffffffffffffffffffffffffffffff\n      and\n      dup2\n      jump\t// out\n        /* \"#utility.yul\":7:97   */\n    tag_63:\n        /* \"#utility.yul\":41:48   */\n      0x00\n        /* \"#utility.yul\":84:89   */\n      dup2\n        /* \"#utility.yul\":77:90   */\n      iszero\n        /* \"#utility.yul\":70:91   */\n      iszero\n        /* \"#utility.yul\":59:91   */\n      swap1\n      pop\n        /* \"#utility.yul\":7:97   */\n      swap2\n      swap1\n      pop\n      jump\t// out\n        /* \"#utility.yul\":103:212   */\n    tag_64:\n        /* \"#utility.yul\":184:205   */\n      tag_79\n        /* \"#utility.yul\":199:204   */\n      dup2\n        /* \"#utility.yul\":184:205   */\n      tag_63\n      jump\t// in\n    tag_79:\n        /* \"#utility.yul\":179:182   */\n      dup3\n        /* \"#utility.yul\":172:206   */\n      mstore\n        /* \"#utility.yul\":103:212   */\n      pop\n      pop\n      jump\t// out\n        /* \"#utility.yul\":218:428   */\n    tag_21:\n        /* \"#utility.yul\":305:309   */\n      0x00\n        /* \"#utility.yul\":343:345   */\n      0x20\n        /* \"#utility.yul\":332:341   */\n      dup3\n        /* \"#utility.yul\":328:346   */\n      add\n        /* \"#utility.yul\":320:346   */\n      swap1\n      pop\n        /* \"#utility.yul\":356:421   */\n      tag_81\n        /* \"#utility.yul\":418:419   */\n      0x00\n        /* \"#utility.yul\":407:416   */\n      dup4\n        /* \"#utility.yul\":403:420   */\n      add\n        /* \"#utility.yul\":394:400   */\n      dup5\n        /* \"#utility.yul\":356:421   */\n      tag_64\n      jump\t// in\n    tag_81:\n        /* \"#utility.yul\":218:428   */\n      swap3\n      swap2\n      pop\n      pop\n      jump\t// out\n        /* \"#utility.yul\":434:511   */\n    tag_65:\n        /* \"#utility.yul\":471:478   */\n      0x00\n        /* \"#utility.yul\":500:505   */\n      dup2\n        /* \"#utility.yul\":489:505   */\n      swap1\n      pop\n        /* \"#utility.yul\":434:511   */\n      swap2\n      swap1\n      pop\n      jump\t// out\n        /* \"#utility.yul\":517:635   */\n    tag_66:\n        /* \"#utility.yul\":604:628   */\n      tag_84\n        /* \"#utility.yul\":622:627   */\n      dup2\n        /* \"#utility.yul\":604:628   */\n      tag_65\n      jump\t// in\n    tag_84:\n        /* \"#utility.yul\":599:602   */\n      dup3\n        /* \"#utility.yul\":592:629   */\n      mstore\n        /* \"#utility.yul\":517:635   */\n      pop\n      pop\n      jump\t// out\n        /* \"#utility.yul\":641:863   */\n    tag_25:\n        /* \"#utility.yul\":734:738   */\n      0x00\n        /* \"#utility.yul\":772:774   */\n      0x20\n        /* \"#utility.yul\":761:770   */\n      dup3\n        /* \"#utility.yul\":757:775   */\n      add\n        /* \"#utility.yul\":749:775   */\n      swap1\n      pop\n        /* \"#utility.yul\":785:856   */\n      tag_86\n        /* \"#utility.yul\":853:854   */\n      0x00\n        /* \"#utility.yul\":842:851   */\n      dup4\n        /* \"#utility.yul\":838:855   */\n      add\n        /* \"#utility.yul\":829:835   */\n      dup5\n        /* \"#utility.yul\":785:856   */\n      tag_66\n      jump\t// in\n    tag_86:\n        /* \"#utility.yul\":641:863   */\n      swap3\n      swap2\n      pop\n      pop\n      jump\t// out\n        /* \"#utility.yul\":869:945   */\n    tag_67:\n        /* \"#utility.yul\":905:912   */\n      0x00\n        /* \"#utility.yul\":934:939   */\n      dup2\n        /* \"#utility.yul\":923:939   */\n      swap1\n      pop\n        /* \"#utility.yul\":869:945   */\n      swap2\n      swap1\n      pop\n      jump\t// out\n        /* \"#utility.yul\":951:1066   */\n    tag_68:\n        /* \"#utility.yul\":1036:1059   */\n      tag_89\n        /* \"#utility.yul\":1053:1058   */\n      dup2\n        /* \"#utility.yul\":1036:1059   */\n      tag_67\n      jump\t// in\n    tag_89:\n        /* \"#utility.yul\":1031:1034   */\n      dup3\n        /* \"#utility.yul\":1024:1060   */\n      mstore\n        /* \"#utility.yul\":951:1066   */\n      pop\n      pop\n      jump\t// out\n        /* \"#utility.yul\":1072:1290   */\n    tag_35:\n        /* \"#utility.yul\":1163:1167   */\n      0x00\n        /* \"#utility.yul\":1201:1203   */\n      0x20\n        /* \"#utility.yul\":1190:1199   */\n      dup3\n        /* \"#utility.yul\":1186:1204   */\n      add\n        /* \"#utility.yul\":1178:1204   */\n      swap1\n      pop\n        /* \"#utility.yul\":1214:1283   */\n      tag_91\n        /* \"#utility.yul\":1280:1281   */\n      0x00\n        /* \"#utility.yul\":1269:1278   */\n      dup4\n        /* \"#utility.yul\":1265:1282   */\n      add\n        /* \"#utility.yul\":1256:1262   */\n      dup5\n        /* \"#utility.yul\":1214:1283   */\n      tag_68\n      jump\t// in\n    tag_91:\n        /* \"#utility.yul\":1072:1290   */\n      swap3\n      swap2\n      pop\n      pop\n      jump\t// out\n        /* \"#utility.yul\":1296:1385   */\n    tag_69:\n        /* \"#utility.yul\":1330:1337   */\n      0x00\n        /* \"#utility.yul\":1373:1378   */\n      dup2\n        /* \"#utility.yul\":1370:1371   */\n      0x00\n        /* \"#utility.yul\":1359:1379   */\n      signextend\n        /* \"#utility.yul\":1348:1379   */\n      swap1\n      pop\n        /* \"#utility.yul\":1296:1385   */\n      swap2\n      swap1\n      pop\n      jump\t// out\n        /* \"#utility.yul\":1391:1500   */\n    tag_70:\n        /* \"#utility.yul\":1472:1493   */\n      tag_94\n        /* \"#utility.yul\":1487:1492   */\n      dup2\n        /* \"#utility.yul\":1472:1493   */\n      tag_69\n      jump\t// in\n    tag_94:\n        /* \"#utility.yul\":1467:1470   */\n      dup3\n        /* \"#utility.yul\":1460:1494   */\n      mstore\n        /* \"#utility.yul\":1391:1500   */\n      pop\n      pop\n      jump\t// out\n        /* \"#utility.yul\":1506:1716   */\n    tag_48:\n        /* \"#utility.yul\":1593:1597   */\n      0x00\n        /* \"#utility.yul\":1631:1633   */\n      0x20\n        /* \"#utility.yul\":1620:1629   */\n      dup3\n        /* \"#utility.yul\":1616:1634   */\n      add\n        /* \"#utility.yul\":1608:1634   */\n      swap1\n      pop\n        /* \"#utility.yul\":1644:1709   */\n      tag_96\n        /* \"#utility.yul\":1706:1707   */\n      0x00\n        /* \"#utility.yul\":1695:1704   */\n      dup4\n        /* \"#utility.yul\":1691:1708   */\n      add\n        /* \"#utility.yul\":1682:1688   */\n      dup5\n        /* \"#utility.yul\":1644:1709   */\n      tag_70\n      jump\t// in\n    tag_96:\n        /* \"#utility.yul\":1506:1716   */\n      swap3\n      swap2\n      pop\n      pop\n      jump\t// out\n        /* \"#utility.yul\":1722:1808   */\n    tag_71:\n        /* \"#utility.yul\":1757:1764   */\n      0x00\n        /* \"#utility.yul\":1797:1801   */\n      0xff\n        /* \"#utility.yul\":1790:1795   */\n      dup3\n        /* \"#utility.yul\":1786:1802   */\n      and\n        /* \"#utility.yul\":1775:1802   */\n      swap1\n      pop\n        /* \"#utility.yul\":1722:1808   */\n      swap2\n      swap1\n      pop\n      jump\t// out\n        /* \"#utility.yul\":1814:1926   */\n    tag_72:\n        /* \"#utility.yul\":1897:1919   */\n      tag_99\n        /* \"#utility.yul\":1913:1918   */\n      dup2\n        /* \"#utility.yul\":1897:1919   */\n      tag_71\n      jump\t// in\n    tag_99:\n        /* \"#utility.yul\":1892:1895   */\n      dup3\n        /* \"#utility.yul\":1885:1920   */\n      mstore\n        /* \"#utility.yul\":1814:1926   */\n      pop\n      pop\n      jump\t// out\n        /* \"#utility.yul\":1932:2146   */\n    tag_52:\n        /* \"#utility.yul\":2021:2025   */\n      0x00\n        /* \"#utility.yul\":2059:2061   */\n      0x20\n        /* \"#utility.yul\":2048:2057   */\n      dup3\n        /* \"#utility.yul\":2044:2062   */\n      add\n        /* \"#utility.yul\":2036:2062   */\n      swap1\n      pop\n        /* \"#utility.yul\":2072:2139   */\n      tag_101\n        /* \"#utility.yul\":2136:2137   */\n      0x00\n        /* \"#utility.yul\":2125:2134   */\n      dup4\n        /* \"#utility.yul\":2121:2138   */\n      add\n        /* \"#utility.yul\":2112:2118   */\n      dup5\n        /* \"#utility.yul\":2072:2139   */\n      tag_72\n      jump\t// in\n    tag_101:\n        /* \"#utility.yul\":1932:2146   */\n      swap3\n      swap2\n      pop\n      pop\n      jump\t// out\n        /* \"#utility.yul\":2152:2278   */\n    tag_73:\n        /* \"#utility.yul\":2189:2196   */\n      0x00\n        /* \"#utility.yul\":2229:2271   */\n      0xffffffffffffffffffffffffffffffffffffffff\n        /* \"#utility.yul\":2222:2227   */\n      dup3\n        /* \"#utility.yul\":2218:2272   */\n      and\n        /* \"#utility.yul\":2207:2272   */\n      swap1\n      pop\n        /* \"#utility.yul\":2152:2278   */\n      swap2\n      swap1\n      pop\n      jump\t// out\n        /* \"#utility.yul\":2284:2380   */\n    tag_74:\n        /* \"#utility.yul\":2321:2328   */\n      0x00\n        /* \"#utility.yul\":2350:2374   */\n      tag_104\n        /* \"#utility.yul\":2368:2373   */\n      dup3\n        /* \"#utility.yul\":2350:2374   */\n      tag_73\n      jump\t// in\n    tag_104:\n        /* \"#utility.yul\":2339:2374   */\n      swap1\n      pop\n        /* \"#utility.yul\":2284:2380   */\n      swap2\n      swap1\n      pop\n      jump\t// out\n        /* \"#utility.yul\":2386:2504   */\n    tag_75:\n        /* \"#utility.yul\":2473:2497   */\n      tag_106\n        /* \"#utility.yul\":2491:2496   */\n      dup2\n        /* \"#utility.yul\":2473:2497   */\n      tag_74\n      jump\t// in\n    tag_106:\n        /* \"#utility.yul\":2468:2471   */\n      dup3\n        /* \"#utility.yul\":2461:2498   */\n      mstore\n        /* \"#utility.yul\":2386:2504   */\n      pop\n      pop\n      jump\t// out\n        /* \"#utility.yul\":2510:2732   */\n    tag_62:\n        /* \"#utility.yul\":2603:2607   */\n      0x00\n        /* \"#utility.yul\":2641:2643   */\n      0x20\n        /* \"#utility.yul\":2630:2639   */\n      dup3\n        /* \"#utility.yul\":2626:2644   */\n      add\n        /* \"#utility.yul\":2618:2644   */\n      swap1\n      pop\n        /* \"#utility.yul\":2654:2725   */\n      tag_108\n        /* \"#utility.yul\":2722:2723   */\n      0x00\n        /* \"#utility.yul\":2711:2720   */\n      dup4\n        /* \"#utility.yul\":2707:2724   */\n      add\n        /* \"#utility.yul\":2698:2704   */\n      dup5\n        /* \"#utility.yul\":2654:2725   */\n      tag_75\n      jump\t// in\n    tag_108:\n        /* \"#utility.yul\":2510:2732   */\n      swap3\n      swap2\n      pop\n      pop\n      jump\t// out\n\n    auxdata: 0xa2646970667358221220db8c3b95a0a23fe1674f580292372cac7939f55d50abae27b81c5e0efcdaec0864736f6c634300081a0033\n}\n",
				"bytecode": {
					"linkReferences": {},
					"object": "608060405260015f806101000a81548160ff02191690831515021790555060015f60016101000a81548160ff021916908360ff1602179055506101c8600155607b6002557fffffffffffffffffffffffffffffffffffffffffffffffffffffffffffffffff60035f6101000a81548160ff02191690835f0b60ff1602179055506101c86004557fffffffffffffffffffffffffffffffffffffffffffffffffffffffffffffff856005557f80000000000000000000000000000000000000000000000000000000000000006006557f7fffffffffffffffffffffffffffffffffffffffffffffffffffffffffffffff60075560b560f81b60085f6101000a81548160ff021916908360f81c0217905550605660f81b600860016101000a81548160ff021916908360f81c0217905550348015610139575f80fd5b5061047c806101475f395ff3fe608060405234801561000f575f80fd5b50600436106100cd575f3560e01c80637a4c25711161008a578063ab3a58a311610064578063ab3a58a3146101df578063c6a898c5146101fd578063e5aa3d581461021b578063f2427d3714610239576100cd565b80637a4c2571146101855780637e4e14cc146101a3578063921cda74146101c1576100cd565b8063074eef3f146100d15780631570c2cb146100ef578063459b1acf1461010d5780634b3df2001461012b5780634c27fd62146101495780635abe622b14610167575b5f80fd5b6100d9610257565b6040516100e6919061030c565b60405180910390f35b6100f761026a565b604051610104919061033d565b60405180910390f35b610115610270565b604051610122919061033d565b60405180910390f35b610133610276565b604051610140919061030c565b60405180910390f35b610151610286565b60405161015e919061036e565b60405180910390f35b61016f61028c565b60405161017c919061036e565b60405180910390f35b61018d610292565b60405161019a919061036e565b60405180910390f35b6101ab610298565b6040516101b8919061036e565b60405180910390f35b6101c961029e565b6040516101d691906103a1565b60405180910390f35b6101e76102af565b6040516101f491906103d5565b60405180910390f35b6102056102c1565b604051610212919061033d565b60405180910390f35b6102236102c7565b604051610230919061036e565b60405180910390f35b6102416102cd565b60405161024e919061042d565b60405180910390f35b600860029054906101000a900460ff1681565b60095481565b60015481565b5f8054906101000a900460ff1681565b60045481565b600a5481565b60075481565b60065481565b60035f9054906101000a90045f0b81565b5f60019054906101000a900460ff1681565b60025481565b60055481565b600b5f9054906101000a900473ffffffffffffffffffffffffffffffffffffffff1681565b5f8115159050919050565b610306816102f2565b82525050565b5f60208201905061031f5f8301846102fd565b92915050565b5f819050919050565b61033781610325565b82525050565b5f6020820190506103505f83018461032e565b92915050565b5f819050919050565b61036881610356565b82525050565b5f6020820190506103815f83018461035f565b92915050565b5f815f0b9050919050565b61039b81610387565b82525050565b5f6020820190506103b45f830184610392565b92915050565b5f60ff82169050919050565b6103cf816103ba565b82525050565b5f6020820190506103e85f8301846103c6565b92915050565b5f73ffffffffffffffffffffffffffffffffffffffff82169050919050565b5f610417826103ee565b9050919050565b6104278161040d565b82525050565b5f6020820190506104405f83018461041e565b9291505056fea2646970667358221220db8c3b95a0a23fe1674f580292372cac7939f55d50abae27b81c5e0efcdaec0864736f6c634300081a0033",
					"opcodes": "PUSH1 0x80 PUSH1 0x40 MSTORE PUSH1 0x1 PUSH0 DUP1 PUSH2 0x100 EXP DUP2 SLOAD DUP2 PUSH1 0xFF MUL NOT AND SWAP1 DUP4 ISZERO ISZERO MUL OR SWAP1 SSTORE POP PUSH1 0x1 PUSH0 PUSH1 0x1 PUSH2 0x100 EXP DUP2 SLOAD DUP2 PUSH1 0xFF MUL NOT AND SWAP1 DUP4 PUSH1 0xFF AND MUL OR SWAP1 SSTORE POP PUSH2 0x1C8 PUSH1 0x1 SSTORE PUSH1 0x7B PUSH1 0x2 SSTORE PUSH32 0xFFFFFFFFFFFFFFFFFFFFFFFFFFFFFFFFFFFFFFFFFFFFFFFFFFFFFFFFFFFFFFFF PUSH1 0x3 PUSH0 PUSH2 0x100 EXP DUP2 SLOAD DUP2 PUSH1 0xFF MUL NOT AND SWAP1 DUP4 PUSH0 SIGNEXTEND PUSH1 0xFF AND MUL OR SWAP1 SSTORE POP PUSH2 0x1C8 PUSH1 0x4 SSTORE PUSH32 0xFFFFFFFFFFFFFFFFFFFFFFFFFFFFFFFFFFFFFFFFFFFFFFFFFFFFFFFFFFFFFF85 PUSH1 0x5 SSTORE PUSH32 0x8000000000000000000000000000000000000000000000000000000000000000 PUSH1 0x6 SSTORE PUSH32 0x7FFFFFFFFFFFFFFFFFFFFFFFFFFFFFFFFFFFFFFFFFFFFFFFFFFFFFFFFFFFFFFF PUSH1 0x7 SSTORE PUSH1 0xB5 PUSH1 0xF8 SHL PUSH1 0x8 PUSH0 PUSH2 0x100 EXP DUP2 SLOAD DUP2 PUSH1 0xFF MUL NOT AND SWAP1 DUP4 PUSH1 0xF8 SHR MUL OR SWAP1 SSTORE POP PUSH1 0x56 PUSH1 0xF8 SHL PUSH1 0x8 PUSH1 0x1 PUSH2 0x100 EXP DUP2 SLOAD DUP2 PUSH1 0xFF MUL NOT AND SWAP1 DUP4 PUSH1 0xF8 SHR MUL OR SWAP1 SSTORE POP CALLVALUE DUP1 ISZERO PUSH2 0x139 JUMPI PUSH0 DUP1 REVERT JUMPDEST POP PUSH2 0x47C DUP1 PUSH2 0x147 PUSH0 CODECOPY PUSH0 RETURN INVALID PUSH1 0x80 PUSH1 0x40 MSTORE CALLVALUE DUP1 ISZERO PUSH2 0xF JUMPI PUSH0 DUP1 REVERT JUMPDEST POP PUSH1 0x4 CALLDATASIZE LT PUSH2 0xCD JUMPI PUSH0 CALLDATALOAD PUSH1 0xE0 SHR DUP1 PUSH4 0x7A4C2571 GT PUSH2 0x8A JUMPI DUP1 PUSH4 0xAB3A58A3 GT PUSH2 0x64 JUMPI DUP1 PUSH4 0xAB3A58A3 EQ PUSH2 0x1DF JUMPI DUP1 PUSH4 0xC6A898C5 EQ PUSH2 0x1FD JUMPI DUP1 PUSH4 0xE5AA3D58 EQ PUSH2 0x21B JUMPI DUP1 PUSH4 0xF2427D37 EQ PUSH2 0x239 JUMPI PUSH2 0xCD JUMP JUMPDEST DUP1 PUSH4 0x7A4C2571 EQ PUSH2 0x185 JUMPI DUP1 PUSH4 0x7E4E14CC EQ PUSH2 0x1A3 JUMPI DUP1 PUSH4 0x921CDA74 EQ PUSH2 0x1C1 JUMPI PUSH2 0xCD JUMP JUMPDEST DUP1 PUSH4 0x74EEF3F EQ PUSH2 0xD1 JUMPI DUP1 PUSH4 0x1570C2CB EQ PUSH2 0xEF JUMPI DUP1 PUSH4 0x459B1ACF EQ PUSH2 0x10D JUMPI DUP1 PUSH4 0x4B3DF200 EQ PUSH2 0x12B JUMPI DUP1 PUSH4 0x4C27FD62 EQ PUSH2 0x149 JUMPI DUP1 PUSH4 0x5ABE622B EQ PUSH2 0x167 JUMPI JUMPDEST PUSH0 DUP1 REVERT JUMPDEST PUSH2 0xD9 PUSH2 0x257 JUMP JUMPDEST PUSH1 0x40 MLOAD PUSH2 0xE6 SWAP2 SWAP1 PUSH2 0x30C JUMP JUMPDEST PUSH1 0x40 MLOAD DUP1 SWAP2 SUB SWAP1 RETURN JUMPDEST PUSH2 0xF7 PUSH2 0x26A JUMP JUMPDEST PUSH1 0x40 MLOAD PUSH2 0x104 SWAP2 SWAP1 PUSH2 0x33D JUMP JUMPDEST PUSH1 0x40 MLOAD DUP1 SWAP2 SUB SWAP1 RETURN JUMPDEST PUSH2 0x115 PUSH2 0x270 JUMP JUMPDEST PUSH1 0x40 MLOAD PUSH2 0x122 SWAP2 SWAP1 PUSH2 0x33D JUMP JUMPDEST PUSH1 0x40 MLOAD DUP1 SWAP2 SUB SWAP1 RETURN JUMPDEST PUSH2 0x133 PUSH2 0x276 JUMP JUMPDEST PUSH1 0x40 MLOAD PUSH2 0x140 SWAP2 SWAP1 PUSH2 0x30C JUMP JUMPDEST PUSH1 0x40 MLOAD DUP1 SWAP2 SUB SWAP1 RETURN JUMPDEST PUSH2 0x151 PUSH2 0x286 JUMP JUMPDEST PUSH1 0x40 MLOAD PUSH2 0x15E SWAP2 SWAP1 PUSH2 0x36E JUMP JUMPDEST PUSH1 0x40 MLOAD DUP1 SWAP2 SUB SWAP1 RETURN JUMPDEST PUSH2 0x16F PUSH2 0x28C JUMP JUMPDEST PUSH1 0x40 MLOAD PUSH2 0x17C SWAP2 SWAP1 PUSH2 0x36E JUMP JUMPDEST PUSH1 0x40 MLOAD DUP1 SWAP2 SUB SWAP1 RETURN JUMPDEST PUSH2 0x18D PUSH2 0x292 JUMP JUMPDEST PUSH1 0x40 MLOAD PUSH2 0x19A SWAP2 SWAP1 PUSH2 0x36E JUMP JUMPDEST PUSH1 0x40 MLOAD DUP1 SWAP2 SUB SWAP1 RETURN JUMPDEST PUSH2 0x1AB PUSH2 0x298 JUMP JUMPDEST PUSH1 0x40 MLOAD PUSH2 0x1B8 SWAP2 SWAP1 PUSH2 0x36E JUMP JUMPDEST PUSH1 0x40 MLOAD DUP1 SWAP2 SUB SWAP1 RETURN JUMPDEST PUSH2 0x1C9 PUSH2 0x29E JUMP JUMPDEST PUSH1 0x40 MLOAD PUSH2 0x1D6 SWAP2 SWAP1 PUSH2 0x3A1 JUMP JUMPDEST PUSH1 0x40 MLOAD DUP1 SWAP2 SUB SWAP1 RETURN JUMPDEST PUSH2 0x1E7 PUSH2 0x2AF JUMP JUMPDEST PUSH1 0x40 MLOAD PUSH2 0x1F4 SWAP2 SWAP1 PUSH2 0x3D5 JUMP JUMPDEST PUSH1 0x40 MLOAD DUP1 SWAP2 SUB SWAP1 RETURN JUMPDEST PUSH2 0x205 PUSH2 0x2C1 JUMP JUMPDEST PUSH1 0x40 MLOAD PUSH2 0x212 SWAP2 SWAP1 PUSH2 0x33D JUMP JUMPDEST PUSH1 0x40 MLOAD DUP1 SWAP2 SUB SWAP1 RETURN JUMPDEST PUSH2 0x223 PUSH2 0x2C7 JUMP JUMPDEST PUSH1 0x40 MLOAD PUSH2 0x230 SWAP2 SWAP1 PUSH2 0x36E JUMP JUMPDEST PUSH1 0x40 MLOAD DUP1 SWAP2 SUB SWAP1 RETURN JUMPDEST PUSH2 0x241 PUSH2 0x2CD JUMP JUMPDEST PUSH1 0x40 MLOAD PUSH2 0x24E SWAP2 SWAP1 PUSH2 0x42D JUMP JUMPDEST PUSH1 0x40 MLOAD DUP1 SWAP2 SUB SWAP1 RETURN JUMPDEST PUSH1 0x8 PUSH1 0x2 SWAP1 SLOAD SWAP1 PUSH2 0x100 EXP SWAP1 DIV PUSH1 0xFF AND DUP2 JUMP JUMPDEST PUSH1 0x9 SLOAD DUP2 JUMP JUMPDEST PUSH1 0x1 SLOAD DUP2 JUMP JUMPDEST PUSH0 DUP1 SLOAD SWAP1 PUSH2 0x100 EXP SWAP1 DIV PUSH1 0xFF AND DUP2 JUMP JUMPDEST PUSH1 0x4 SLOAD DUP2 JUMP JUMPDEST PUSH1 0xA SLOAD DUP2 JUMP JUMPDEST PUSH1 0x7 SLOAD DUP2 JUMP JUMPDEST PUSH1 0x6 SLOAD DUP2 JUMP JUMPDEST PUSH1 0x3 PUSH0 SWAP1 SLOAD SWAP1 PUSH2 0x100 EXP SWAP1 DIV PUSH0 SIGNEXTEND DUP2 JUMP JUMPDEST PUSH0 PUSH1 0x1 SWAP1 SLOAD SWAP1 PUSH2 0x100 EXP SWAP1 DIV PUSH1 0xFF AND DUP2 JUMP JUMPDEST PUSH1 0x2 SLOAD DUP2 JUMP JUMPDEST PUSH1 0x5 SLOAD DUP2 JUMP JUMPDEST PUSH1 0xB PUSH0 SWAP1 SLOAD SWAP1 PUSH2 0x100 EXP SWAP1 DIV PUSH20 0xFFFFFFFFFFFFFFFFFFFFFFFFFFFFFFFFFFFFFFFF AND DUP2 JUMP JUMPDEST PUSH0 DUP2 ISZERO ISZERO SWAP1 POP SWAP2 SWAP1 POP JUMP JUMPDEST PUSH2 0x306 DUP2 PUSH2 0x2F2 JUMP JUMPDEST DUP3 MSTORE POP POP JUMP JUMPDEST PUSH0 PUSH1 0x20 DUP3 ADD SWAP1 POP PUSH2 0x31F PUSH0 DUP4 ADD DUP5 PUSH2 0x2FD JUMP JUMPDEST SWAP3 SWAP2 POP POP JUMP JUMPDEST PUSH0 DUP2 SWAP1 POP SWAP2 SWAP1 POP JUMP JUMPDEST PUSH2 0x337 DUP2 PUSH2 0x325 JUMP JUMPDEST DUP3 MSTORE POP POP JUMP JUMPDEST PUSH0 PUSH1 0x20 DUP3 ADD SWAP1 POP PUSH2 0x350 PUSH0 DUP4 ADD DUP5 PUSH2 0x32E JUMP JUMPDEST SWAP3 SWAP2 POP POP JUMP JUMPDEST PUSH0 DUP2 SWAP1 POP SWAP2 SWAP1 POP JUMP JUMPDEST PUSH2 0x368 DUP2 PUSH2 0x356 JUMP JUMPDEST DUP3 MSTORE POP POP JUMP JUMPDEST PUSH0 PUSH1 0x20 DUP3 ADD SWAP1 POP PUSH2 0x381 PUSH0 DUP4 ADD DUP5 PUSH2 0x35F JUMP JUMPDEST SWAP3 SWAP2 POP POP JUMP JUMPDEST PUSH0 DUP2 PUSH0 SIGNEXTEND SWAP1 POP SWAP2 SWAP1 POP JUMP JUMPDEST PUSH2 0x39B DUP2 PUSH2 0x387 JUMP JUMPDEST DUP3 MSTORE POP POP JUMP JUMPDEST PUSH0 PUSH1 0x20 DUP3 ADD SWAP1 POP PUSH2 0x3B4 PUSH0 DUP4 ADD DUP5 PUSH2 0x392 JUMP JUMPDEST SWAP3 SWAP2 POP POP JUMP JUMPDEST PUSH0 PUSH1 0xFF DUP3 AND SWAP1 POP SWAP2 SWAP1 POP JUMP JUMPDEST PUSH2 0x3CF DUP2 PUSH2 0x3BA JUMP JUMPDEST DUP3 MSTORE POP POP JUMP JUMPDEST PUSH0 PUSH1 0x20 DUP3 ADD SWAP1 POP PUSH2 0x3E8 PUSH0 DUP4 ADD DUP5 PUSH2 0x3C6 JUMP JUMPDEST SWAP3 SWAP2 POP POP JUMP JUMPDEST PUSH0 PUSH20 0xFFFFFFFFFFFFFFFFFFFFFFFFFFFFFFFFFFFFFFFF DUP3 AND SWAP1 POP SWAP2 SWAP1 POP JUMP JUMPDEST PUSH0 PUSH2 0x417 DUP3 PUSH2 0x3EE JUMP JUMPDEST SWAP1 POP SWAP2 SWAP1 POP JUMP JUMPDEST PUSH2 0x427 DUP2 PUSH2 0x40D JUMP JUMPDEST DUP3 MSTORE POP POP JUMP JUMPDEST PUSH0 PUSH1 0x20 DUP3 ADD SWAP1 POP PUSH2 0x440 PUSH0 DUP4 ADD DUP5 PUSH2 0x41E JUMP JUMPDEST SWAP3 SWAP2 POP POP JUMP INVALID LOG2 PUSH5 0x6970667358 0x22 SLT KECCAK256 0xDB DUP13 EXTCODESIZE SWAP6 LOG0 LOG2 EXTCODEHASH 0xE1 PUSH8 0x4F580292372CAC79 CODECOPY CREATE2 TSTORE POP 0xAB 0xAE 0x27 0xB8 SHR MCOPY 0xE 0xFC 0xDA 0xEC ADDMOD PUSH5 0x736F6C6343 STOP ADDMOD BYTE STOP CALLER "
				},
				"gasEstimates": {
					"creation": {
						"codeDepositCost": "229600",
						"executionCost": "254353",
						"totalCost": "483953"
					},
					"external": {
						"boo()": "2530",
						"defaultAddr()": "2596",
						"defaultBoo()": "2518",
						"defaultInt()": "2536",
						"defaultUint()": "2448",
						"i()": "2491",
						"i256()": "2514",
						"i8()": "2535",
						"maxInt()": "2448",
						"minInt()": "2470",
						"u()": "2469",
						"u256()": "2470",
						"u8()": "2538"
					}
				},
				"methodIdentifiers": {
					"boo()": "4b3df200",
					"defaultAddr()": "f2427d37",
					"defaultBoo()": "074eef3f",
					"defaultInt()": "5abe622b",
					"defaultUint()": "1570c2cb",
					"i()": "e5aa3d58",
					"i256()": "4c27fd62",
					"i8()": "921cda74",
					"maxInt()": "7a4c2571",
					"minInt()": "7e4e14cc",
					"u()": "c6a898c5",
					"u256()": "459b1acf",
					"u8()": "ab3a58a3"
				}
			},
			"storageLayout": {
				"storage": [
					{
						"astId": 4,
						"contract": "contracts/Primitives.sol:Primitives",
						"label": "boo",
						"offset": 0,
						"slot": "0",
						"type": "t_bool"
					},
					{
						"astId": 7,
						"contract": "contracts/Primitives.sol:Primitives",
						"label": "u8",
						"offset": 1,
						"slot": "0",
						"type": "t_uint8"
					},
					{
						"astId": 10,
						"contract": "contracts/Primitives.sol:Primitives",
						"label": "u256",
						"offset": 0,
						"slot": "1",
						"type": "t_uint256"
					},
					{
						"astId": 13,
						"contract": "contracts/Primitives.sol:Primitives",
						"label": "u",
						"offset": 0,
						"slot": "2",
						"type": "t_uint256"
					},
					{
						"astId": 17,
						"contract": "contracts/Primitives.sol:Primitives",
						"label": "i8",
						"offset": 0,
						"slot": "3",
						"type": "t_int8"
					},
					{
						"astId": 20,
						"contract": "contracts/Primitives.sol:Primitives",
						"label": "i256",
						"offset": 0,
						"slot": "4",
						"type": "t_int256"
					},
					{
						"astId": 24,
						"contract": "contracts/Primitives.sol:Primitives",
						"label": "i",
						"offset": 0,
						"slot": "5",
						"type": "t_int256"
					},
					{
						"astId": 31,
						"contract": "contracts/Primitives.sol:Primitives",
						"label": "minInt",
						"offset": 0,
						"slot": "6",
						"type": "t_int256"
					},
					{
						"astId": 38,
						"contract": "contracts/Primitives.sol:Primitives",
						"label": "maxInt",
						"offset": 0,
						"slot": "7",
						"type": "t_int256"
					},
					{
						"astId": 41,
						"contract": "contracts/Primitives.sol:Primitives",
						"label": "a",
						"offset": 0,
						"slot": "8",
						"type": "t_bytes1"
					},
					{
						"astId": 44,
						"contract": "contracts/Primitives.sol:Primitives",
						"label": "b",
						"offset": 1,
						"slot": "8",
						"type": "t_bytes1"
					},
					{
						"astId": 46,
						"contract": "contracts/Primitives.sol:Primitives",
						"label": "defaultBoo",
						"offset": 2,
						"slot": "8",
						"type": "t_bool"
					},
					{
						"astId": 48,
						"contract": "contracts/Primitives.sol:Primitives",
						"label": "defaultUint",
						"offset": 0,
						"slot": "9",
						"type": "t_uint256"
					},
					{
						"astId": 50,
						"contract": "contracts/Primitives.sol:Primitives",
						"label": "defaultInt",
						"offset": 0,
						"slot": "10",
						"type": "t_int256"
					},
					{
						"astId": 52,
						"contract": "contracts/Primitives.sol:Primitives",
						"label": "defaultAddr",
						"offset": 0,
						"slot": "11",
						"type": "t_address"
					}
				],
				"types": {
					"t_address": {
						"encoding": "inplace",
						"label": "address",
						"numberOfBytes": "20"
					},
					"t_bool": {
						"encoding": "inplace",
						"label": "bool",
						"numberOfBytes": "1"
					},
					"t_bytes1": {
						"encoding": "inplace",
						"label": "bytes1",
						"numberOfBytes": "1"
					},
					"t_int256": {
						"encoding": "inplace",
						"label": "int256",
						"numberOfBytes": "32"
					},
					"t_int8": {
						"encoding": "inplace",
						"label": "int8",
						"numberOfBytes": "1"
					},
					"t_uint256": {
						"encoding": "inplace",
						"label": "uint256",
						"numberOfBytes": "32"
					},
					"t_uint8": {
						"encoding": "inplace",
						"label": "uint8",
						"numberOfBytes": "1"
					}
				}
			},
			"userdoc": {
				"kind": "user",
				"methods": {},
				"version": 1
			}
		}
	}
}