{
	"data": {
		"bytecode": {
			"linkReferences": {},
			"object": "6080604052348015600e575f80fd5b5061058f8061001c5f395ff3fe608060405234801561000f575f80fd5b506004361061004a575f3560e01c806326121ff01461004e57806340dcbb081461006c57806371e5ee5f14610088578063baf71609146100b8575b5f80fd5b6100566100e8565b60405161006391906101af565b60405180910390f35b6100866004803603810190610081919061023a565b61013c565b005b6100a2600480360381019061009d91906102af565b610140565b6040516100af91906102e9565b60405180910390f35b6100d260048036038101906100cd919061044a565b61015f565b6040516100df9190610539565b60405180910390f35b6100f061016b565b61010d5f600160025f600181526020019081526020015f20610166565b5f60025f600181526020019081526020015f2090505f60405180602001604052805f8152509050809250505090565b5050565b5f818154811061014e575f80fd5b905f5260205f20015f915090505481565b6060919050565b505050565b60405180602001604052805f81525090565b5f819050919050565b61018f8161017d565b82525050565b602082015f8201516101a95f850182610186565b50505050565b5f6020820190506101c25f830184610195565b92915050565b5f604051905090565b5f80fd5b5f80fd5b5f80fd5b5f80fd5b5f80fd5b5f8083601f8401126101fa576101f96101d9565b5b8235905067ffffffffffffffff811115610217576102166101dd565b5b602083019150836020820283011115610233576102326101e1565b5b9250929050565b5f80602083850312156102505761024f6101d1565b5b5f83013567ffffffffffffffff81111561026d5761026c6101d5565b5b610279858286016101e5565b92509250509250929050565b61028e8161017d565b8114610298575f80fd5b50565b5f813590506102a981610285565b92915050565b5f602082840312156102c4576102c36101d1565b5b5f6102d18482850161029b565b91505092915050565b6102e38161017d565b82525050565b5f6020820190506102fc5f8301846102da565b92915050565b5f601f19601f8301169050919050565b7f4e487b71000000000000000000000000000000000000000000000000000000005f52604160045260245ffd5b61034882610302565b810181811067ffffffffffffffff8211171561036757610366610312565b5b80604052505050565b5f6103796101c8565b9050610385828261033f565b919050565b5f67ffffffffffffffff8211156103a4576103a3610312565b5b602082029050602081019050919050565b5f6103c76103c28461038a565b610370565b905080838252602082019050602084028301858111156103ea576103e96101e1565b5b835b8181101561041357806103ff888261029b565b8452602084019350506020810190506103ec565b5050509392505050565b5f82601f830112610431576104306101d9565b5b81356104418482602086016103b5565b91505092915050565b5f6020828403121561045f5761045e6101d1565b5b5f82013567ffffffffffffffff81111561047c5761047b6101d5565b5b6104888482850161041d565b91505092915050565b5f81519050919050565b5f82825260208201905092915050565b5f819050602082019050919050565b5f6104c58383610186565b60208301905092915050565b5f602082019050919050565b5f6104e782610491565b6104f1818561049b565b93506104fc836104ab565b805f5b8381101561052c57815161051388826104ba565b975061051e836104d1565b9250506001810190506104ff565b5085935050505092915050565b5f6020820190508181035f83015261055181846104dd565b90509291505056fea2646970667358221220b96af3f3f5ba26b2ba4bfc5da32871b4beb03b0633ee45925a742554b7a3571e64736f6c634300081a0033",
			"opcodes": "PUSH1 0x80 PUSH1 0x40 MSTORE CALLVALUE DUP1 ISZERO PUSH1 0xE JUMPI PUSH0 DUP1 REVERT JUMPDEST POP PUSH2 0x58F DUP1 PUSH2 0x1C PUSH0 CODECOPY PUSH0 RETURN INVALID PUSH1 0x80 PUSH1 0x40 MSTORE CALLVALUE DUP1 ISZERO PUSH2 0xF JUMPI PUSH0 DUP1 REVERT JUMPDEST POP PUSH1 0x4 CALLDATASIZE LT PUSH2 0x4A JUMPI PUSH0 CALLDATALOAD PUSH1 0xE0 SHR DUP1 PUSH4 0x26121FF0 EQ PUSH2 0x4E JUMPI DUP1 PUSH4 0x40DCBB08 EQ PUSH2 0x6C JUMPI DUP1 PUSH4 0x71E5EE5F EQ PUSH2 0x88 JUMPI DUP1 PUSH4 0xBAF71609 EQ PUSH2 0xB8 JUMPI JUMPDEST PUSH0 DUP1 REVERT JUMPDEST PUSH2 0x56 PUSH2 0xE8 JUMP JUMPDEST PUSH1 0x40 MLOAD PUSH2 0x63 SWAP2 SWAP1 PUSH2 0x1AF JUMP JUMPDEST PUSH1 0x40 MLOAD DUP1 SWAP2 SUB SWAP1 RETURN JUMPDEST PUSH2 0x86 PUSH1 0x4 DUP1 CALLDATASIZE SUB DUP2 ADD SWAP1 PUSH2 0x81 SWAP2 SWAP1 PUSH2 0x23A JUMP JUMPDEST PUSH2 0x13C JUMP JUMPDEST STOP JUMPDEST PUSH2 0xA2 PUSH1 0x4 DUP1 CALLDATASIZE SUB DUP2 ADD SWAP1 PUSH2 0x9D SWAP2 SWAP1 PUSH2 0x2AF JUMP JUMPDEST PUSH2 0x140 JUMP JUMPDEST PUSH1 0x40 MLOAD PUSH2 0xAF SWAP2 SWAP1 PUSH2 0x2E9 JUMP JUMPDEST PUSH1 0x40 MLOAD DUP1 SWAP2 SUB SWAP1 RETURN JUMPDEST PUSH2 0xD2 PUSH1 0x4 DUP1 CALLDATASIZE SUB DUP2 ADD SWAP1 PUSH2 0xCD SWAP2 SWAP1 PUSH2 0x44A JUMP JUMPDEST PUSH2 0x15F JUMP JUMPDEST PUSH1 0x40 MLOAD PUSH2 0xDF SWAP2 SWAP1 PUSH2 0x539 JUMP JUMPDEST PUSH1 0x40 MLOAD DUP1 SWAP2 SUB SWAP1 RETURN JUMPDEST PUSH2 0xF0 PUSH2 0x16B JUMP JUMPDEST PUSH2 0x10D PUSH0 PUSH1 0x1 PUSH1 0x2 PUSH0 PUSH1 0x1 DUP2 MSTORE PUSH1 0x20 ADD SWAP1 DUP2 MSTORE PUSH1 0x20 ADD PUSH0 KECCAK256 PUSH2 0x166 JUMP JUMPDEST PUSH0 PUSH1 0x2 PUSH0 PUSH1 0x1 DUP2 MSTORE PUSH1 0x20 ADD SWAP1 DUP2 MSTORE PUSH1 0x20 ADD PUSH0 KECCAK256 SWAP1 POP PUSH0 PUSH1 0x40 MLOAD DUP1 PUSH1 0x20 ADD PUSH1 0x40 MSTORE DUP1 PUSH0 DUP2 MSTORE POP SWAP1 POP DUP1 SWAP3 POP POP POP SWAP1 JUMP JUMPDEST POP POP JUMP JUMPDEST PUSH0 DUP2 DUP2 SLOAD DUP2 LT PUSH2 0x14E JUMPI PUSH0 DUP1 REVERT JUMPDEST SWAP1 PUSH0 MSTORE PUSH1 0x20 PUSH0 KECCAK256 ADD PUSH0 SWAP2 POP SWAP1 POP SLOAD DUP2 JUMP JUMPDEST PUSH1 0x60 SWAP2 SWAP1 POP JUMP JUMPDEST POP POP POP JUMP JUMPDEST PUSH1 0x40 MLOAD DUP1 PUSH1 0x20 ADD PUSH1 0x40 MSTORE DUP1 PUSH0 DUP2 MSTORE POP SWAP1 JUMP JUMPDEST PUSH0 DUP2 SWAP1 POP SWAP2 SWAP1 POP JUMP JUMPDEST PUSH2 0x18F DUP2 PUSH2 0x17D JUMP JUMPDEST DUP3 MSTORE POP POP JUMP JUMPDEST PUSH1 0x20 DUP3 ADD PUSH0 DUP3 ADD MLOAD PUSH2 0x1A9 PUSH0 DUP6 ADD DUP3 PUSH2 0x186 JUMP JUMPDEST POP POP POP POP JUMP JUMPDEST PUSH0 PUSH1 0x20 DUP3 ADD SWAP1 POP PUSH2 0x1C2 PUSH0 DUP4 ADD DUP5 PUSH2 0x195 JUMP JUMPDEST SWAP3 SWAP2 POP POP JUMP JUMPDEST PUSH0 PUSH1 0x40 MLOAD SWAP1 POP SWAP1 JUMP JUMPDEST PUSH0 DUP1 REVERT JUMPDEST PUSH0 DUP1 REVERT JUMPDEST PUSH0 DUP1 REVERT JUMPDEST PUSH0 DUP1 REVERT JUMPDEST PUSH0 DUP1 REVERT JUMPDEST PUSH0 DUP1 DUP4 PUSH1 0x1F DUP5 ADD SLT PUSH2 0x1FA JUMPI PUSH2 0x1F9 PUSH2 0x1D9 JUMP JUMPDEST JUMPDEST DUP3 CALLDATALOAD SWAP1 POP PUSH8 0xFFFFFFFFFFFFFFFF DUP2 GT ISZERO PUSH2 0x217 JUMPI PUSH2 0x216 PUSH2 0x1DD JUMP JUMPDEST JUMPDEST PUSH1 0x20 DUP4 ADD SWAP2 POP DUP4 PUSH1 0x20 DUP3 MUL DUP4 ADD GT ISZERO PUSH2 0x233 JUMPI PUSH2 0x232 PUSH2 0x1E1 JUMP JUMPDEST JUMPDEST SWAP3 POP SWAP3 SWAP1 POP JUMP JUMPDEST PUSH0 DUP1 PUSH1 0x20 DUP4 DUP6 SUB SLT ISZERO PUSH2 0x250 JUMPI PUSH2 0x24F PUSH2 0x1D1 JUMP JUMPDEST JUMPDEST PUSH0 DUP4 ADD CALLDATALOAD PUSH8 0xFFFFFFFFFFFFFFFF DUP2 GT ISZERO PUSH2 0x26D JUMPI PUSH2 0x26C PUSH2 0x1D5 JUMP JUMPDEST JUMPDEST PUSH2 0x279 DUP6 DUP3 DUP7 ADD PUSH2 0x1E5 JUMP JUMPDEST SWAP3 POP SWAP3 POP POP SWAP3 POP SWAP3 SWAP1 POP JUMP JUMPDEST PUSH2 0x28E DUP2 PUSH2 0x17D JUMP JUMPDEST DUP2 EQ PUSH2 0x298 JUMPI PUSH0 DUP1 REVERT JUMPDEST POP JUMP JUMPDEST PUSH0 DUP2 CALLDATALOAD SWAP1 POP PUSH2 0x2A9 DUP2 PUSH2 0x285 JUMP JUMPDEST SWAP3 SWAP2 POP POP JUMP JUMPDEST PUSH0 PUSH1 0x20 DUP3 DUP5 SUB SLT ISZERO PUSH2 0x2C4 JUMPI PUSH2 0x2C3 PUSH2 0x1D1 JUMP JUMPDEST JUMPDEST PUSH0 PUSH2 0x2D1 DUP5 DUP3 DUP6 ADD PUSH2 0x29B JUMP JUMPDEST SWAP2 POP POP SWAP3 SWAP2 POP POP JUMP JUMPDEST PUSH2 0x2E3 DUP2 PUSH2 0x17D JUMP JUMPDEST DUP3 MSTORE POP POP JUMP JUMPDEST PUSH0 PUSH1 0x20 DUP3 ADD SWAP1 POP PUSH2 0x2FC PUSH0 DUP4 ADD DUP5 PUSH2 0x2DA JUMP JUMPDEST SWAP3 SWAP2 POP POP JUMP JUMPDEST PUSH0 PUSH1 0x1F NOT PUSH1 0x1F DUP4 ADD AND SWAP1 POP SWAP2 SWAP1 POP JUMP JUMPDEST PUSH32 0x4E487B7100000000000000000000000000000000000000000000000000000000 PUSH0 MSTORE PUSH1 0x41 PUSH1 0x4 MSTORE PUSH1 0x24 PUSH0 REVERT JUMPDEST PUSH2 0x348 DUP3 PUSH2 0x302 JUMP JUMPDEST DUP2 ADD DUP2 DUP2 LT PUSH8 0xFFFFFFFFFFFFFFFF DUP3 GT OR ISZERO PUSH2 0x367 JUMPI PUSH2 0x366 PUSH2 0x312 JUMP JUMPDEST JUMPDEST DUP1 PUSH1 0x40 MSTORE POP POP POP JUMP JUMPDEST PUSH0 PUSH2 0x379 PUSH2 0x1C8 JUMP JUMPDEST SWAP1 POP PUSH2 0x385 DUP3 DUP3 PUSH2 0x33F JUMP JUMPDEST SWAP2 SWAP1 POP JUMP JUMPDEST PUSH0 PUSH8 0xFFFFFFFFFFFFFFFF DUP3 GT ISZERO PUSH2 0x3A4 JUMPI PUSH2 0x3A3 PUSH2 0x312 JUMP JUMPDEST JUMPDEST PUSH1 0x20 DUP3 MUL SWAP1 POP PUSH1 0x20 DUP2 ADD SWAP1 POP SWAP2 SWAP1 POP JUMP JUMPDEST PUSH0 PUSH2 0x3C7 PUSH2 0x3C2 DUP5 PUSH2 0x38A JUMP JUMPDEST PUSH2 0x370 JUMP JUMPDEST SWAP1 POP DUP1 DUP4 DUP3 MSTORE PUSH1 0x20 DUP3 ADD SWAP1 POP PUSH1 0x20 DUP5 MUL DUP4 ADD DUP6 DUP2 GT ISZERO PUSH2 0x3EA JUMPI PUSH2 0x3E9 PUSH2 0x1E1 JUMP JUMPDEST JUMPDEST DUP4 JUMPDEST DUP2 DUP2 LT ISZERO PUSH2 0x413 JUMPI DUP1 PUSH2 0x3FF DUP9 DUP3 PUSH2 0x29B JUMP JUMPDEST DUP5 MSTORE PUSH1 0x20 DUP5 ADD SWAP4 POP POP PUSH1 0x20 DUP2 ADD SWAP1 POP PUSH2 0x3EC JUMP JUMPDEST POP POP POP SWAP4 SWAP3 POP POP POP JUMP JUMPDEST PUSH0 DUP3 PUSH1 0x1F DUP4 ADD SLT PUSH2 0x431 JUMPI PUSH2 0x430 PUSH2 0x1D9 JUMP JUMPDEST JUMPDEST DUP2 CALLDATALOAD PUSH2 0x441 DUP5 DUP3 PUSH1 0x20 DUP7 ADD PUSH2 0x3B5 JUMP JUMPDEST SWAP2 POP POP SWAP3 SWAP2 POP POP JUMP JUMPDEST PUSH0 PUSH1 0x20 DUP3 DUP5 SUB SLT ISZERO PUSH2 0x45F JUMPI PUSH2 0x45E PUSH2 0x1D1 JUMP JUMPDEST JUMPDEST PUSH0 DUP3 ADD CALLDATALOAD PUSH8 0xFFFFFFFFFFFFFFFF DUP2 GT ISZERO PUSH2 0x47C JUMPI PUSH2 0x47B PUSH2 0x1D5 JUMP JUMPDEST JUMPDEST PUSH2 0x488 DUP5 DUP3 DUP6 ADD PUSH2 0x41D JUMP JUMPDEST SWAP2 POP POP SWAP3 SWAP2 POP POP JUMP JUMPDEST PUSH0 DUP2 MLOAD SWAP1 POP SWAP2 SWAP1 POP JUMP JUMPDEST PUSH0 DUP3 DUP3 MSTORE PUSH1 0x20 DUP3 ADD SWAP1 POP SWAP3 SWAP2 POP POP JUMP JUMPDEST PUSH0 DUP2 SWAP1 POP PUSH1 0x20 DUP3 ADD SWAP1 POP SWAP2 SWAP1 POP JUMP JUMPDEST PUSH0 PUSH2 0x4C5 DUP4 DUP4 PUSH2 0x186 JUMP JUMPDEST PUSH1 0x20 DUP4 ADD SWAP1 POP SWAP3 SWAP2 POP POP JUMP JUMPDEST PUSH0 PUSH1 0x20 DUP3 ADD SWAP1 POP SWAP2 SWAP1 POP JUMP JUMPDEST PUSH0 PUSH2 0x4E7 DUP3 PUSH2 0x491 JUMP JUMPDEST PUSH2 0x4F1 DUP2 DUP6 PUSH2 0x49B JUMP JUMPDEST SWAP4 POP PUSH2 0x4FC DUP4 PUSH2 0x4AB JUMP JUMPDEST DUP1 PUSH0 JUMPDEST DUP4 DUP2 LT ISZERO PUSH2 0x52C JUMPI DUP2 MLOAD PUSH2 0x513 DUP9 DUP3 PUSH2 0x4BA JUMP JUMPDEST SWAP8 POP PUSH2 0x51E DUP4 PUSH2 0x4D1 JUMP JUMPDEST SWAP3 POP POP PUSH1 0x1 DUP2 ADD SWAP1 POP PUSH2 0x4FF JUMP JUMPDEST POP DUP6 SWAP4 POP POP POP POP SWAP3 SWAP2 POP POP JUMP JUMPDEST PUSH0 PUSH1 0x20 DUP3 ADD SWAP1 POP DUP2 DUP2 SUB PUSH0 DUP4 ADD MSTORE PUSH2 0x551 DUP2 DUP5 PUSH2 0x4DD JUMP JUMPDEST SWAP1 POP SWAP3 SWAP2 POP POP JUMP INVALID LOG2 PUSH5 0x6970667358 0x22 SLT KECCAK256 0xB9 PUSH11 0xF3F3F5BA26B2BA4BFC5DA3 0x28 PUSH18 0xB4BEB03B0633EE45925A742554B7A3571E64 PUSH20 0x6F6C634300081A00330000000000000000000000 "
		},
		"gasEstimates": {
			"creation": {
				"codeDepositCost": "284600",
				"executionCost": "322",
				"totalCost": "284922"
			},
			"external": {
				"arr(uint256)": "infinite",
				"f()": "683",
				"g(uint256[])": "infinite",
				"h(uint256[])": "470"
			},
			"internal": {
				"_f(uint256[] storage pointer,mapping(uint256 => address),struct DataLocations.MyStruct storage pointer)": "15"
			}
		},
		"methodIdentifiers": {
			"arr(uint256)": "71e5ee5f",
			"f()": "26121ff0",
			"g(uint256[])": "baf71609",
			"h(uint256[])": "40dcbb08"
		}
	},
	"abi": [
		{
			"inputs": [
				{
					"internalType": "uint256",
					"name": "",
					"type": "uint256"
				}
			],
			"name": "arr",
			"outputs": [
				{
					"internalType": "uint256",
					"name": "",
					"type": "uint256"
				}
			],
			"stateMutability": "view",
			"type": "function"
		},
		{
			"inputs": [],
			"name": "f",
			"outputs": [
				{
					"components": [
						{
							"internalType": "uint256",
							"name": "foo",
							"type": "uint256"
						}
					],
					"internalType": "struct DataLocations.MyStruct",
					"name": "",
					"type": "tuple"
				}
			],
			"stateMutability": "nonpayable",
			"type": "function"
		},
		{
			"inputs": [
				{
					"internalType": "uint256[]",
					"name": "_arr",
					"type": "uint256[]"
				}
			],
			"name": "g",
			"outputs": [
				{
					"internalType": "uint256[]",
					"name": "",
					"type": "uint256[]"
				}
			],
			"stateMutability": "nonpayable",
			"type": "function"
		},
		{
			"inputs": [
				{
					"internalType": "uint256[]",
					"name": "_arr",
					"type": "uint256[]"
				}
			],
			"name": "h",
			"outputs": [],
			"stateMutability": "nonpayable",
			"type": "function"
		}
	]
}